:1000000071C000008EC000008CC000008AC00000DB
:1000100088C0000086C0000084C0000082C00000CC
:1000200080C000007EC000007CC000007AC00000DC
:1000300078C0000076C0000074C0000072C00000EC
:1000400070C000006EC000006CC000006AC00000FC
:1000500068C0000066C0000064C0000062C000000C
:1000600060C0000057C100005CC000005AC0000022
:1000700058C0000056C0000054C0000052C000002C
:1000800050C000004EC000004CC000004AC000003C
:1000900048C0000046C0000044C0000042C000004C
:1000A00040C000003EC000003CC000003AC000005C
:1000B00038C0000036C0000034C0000048C0000056
:1000C00030C000002EC000002CC000002AC000007C
:1000D00028C0000026C0000024C0000022C000008C
:1000E00020C0000011241FBECFEFD1E2DEBFCDBF84
:1000F00000E00CBF22E0A4E0B2E001C01D92A531F7
:10010000B207E1F712E0A0E0B2E0E0E4F5E000E0E1
:100110000BBF02C007900D92A430B107D9F7CDD024
:100120000DC26ECFE1E2F1E080818860808388E0DB
:100130009DE39093290180932801808185608083CD
:10014000E3E7F0E0808182608083789408951F92D5
:100150000F920FB60F9211242F933F934F935F93FB
:100160006F937F938F939F93AF93BF93809106027A
:1001700090910702019690930702809306024091A6
:100180000602509107029A013695279536952795D4
:10019000ABE3BDE621D196958795929582958F70B8
:1001A00089279F7089276CE271E0869F9001879F65
:1001B000300D969F300D11244217530719F481E03A
:1001C00080930502809106029091070264E873E033
:1001D000DCD0892B19F481E080930402BF91AF91A8
:1001E0009F918F917F916F915F914F913F912F914F
:1001F0000F900FBE0F901F9018958DB188638DB929
:1002000083B3806283BB89EA809390008BE0809304
:10021000910083E284BD83E085BD0895813031F48F
:10022000262F30E030939B0020939A00823031F4E7
:10023000262F30E030939D0020939C00833009F4FA
:1002400068BD843029F470E0709399006093980041
:100250000895833031F0843031F0823031F080E025
:10026000089580E808958FEF089580E408958091BF
:100270000502882319F03BD01092050280910402F8
:100280008111109204020895CF9380910A0288236D
:1002900091F080910B02823511F490910C02863519
:1002A00041F4EBE0F2E0C1818281D3DF682F8C2F33
:1002B000B5DF10920A02CF9108959FDF04D032DF9C
:1002C000D6DFE2DFFDCF1092C50087E68093C40041
:1002D00086E08093C20088E98093C10078940895F5
:1002E0009091C00095FFFCCF8093C6000895CF93F6
:1002F000DF93C8D061E170E05CD0EC0125968AEA1A
:10030000EFDF84E5EDDF8C2FEBDF8BEBE9DFDF91B7
:10031000CF9108951F920F920FB60F9211240BB632
:100320000F928F939F93EF93FF938091C6009091CC
:100330000802911108C08A3AE9F481E0809308022A
:100340001092090217C08B3B31F481E080930A02BE
:10035000109208020FC0E0910902EA3048F491E0DF
:100360009E0F90930902F0E0E55FFD4F808302C08D
:1003700010920802FF91EF919F918F910F900BBE09
:100380000F900FBE0F901F901895AA1BBB1B51E139
:1003900007C0AA1FBB1FA617B70710F0A61BB70BF5
:1003A000881F991F5A95A9F780959095BC01CD019A
:1003B000089597FB072E16F4009406D077FD08D019
:1003C000E4DF07FC05D03EF4909581959F4F08959A
:1003D000709561957F4F0895A29FB001B39FC001B2
:1003E000A39F700D811D1124911DB29F700D811D61
:1003F0001124911D08958F929F92AF92BF92CF9238
:10040000DF92EF92FF92CF93DF93EC0168817981C5
:100410008A819B81611571058105910521F464E252
:1004200079ED8BE597E02DE133EF41E050E038D0F6
:1004300049015A019B01AC01A7EAB1E44DD06B011F
:100440007C01ACEEB4EFA501940152D0DC01CB01EC
:100450008C0D9D1DAE1DBF1DB7FF03C00197A109E7
:10046000B04888839983AA83BB839F77DF91CF911C
:10047000FF90EF90DF90CF90BF90AF909F908F90C4
:100480000895B9CF80E092E0B6CFA0E0B0E08093CD
:10049000000290930102A0930202B0930302089518
:1004A000052E97FB16F400940FD057FD05D024D0ED
:1004B00007FC02D046F408C0509540953095219530
:1004C0003F4F4F4F5F4F0895909580957095619580
:1004D0007F4F8F4F9F4F08957FDFA59F900DB49F53
:1004E000900DA49F800D911D11240895B7FFF4CFA6
:1004F000F3DF821B930B0895A1E21A2EAA1BBB1BEC
:10050000FD010DC0AA1FBB1FEE1FFF1FA217B307DF
:10051000E407F50720F0A21BB30BE40BF50B661FF5
:10052000771F881F991F1A9469F7609570958095B9
:1005300090959B01AC01BD01CF010895F894FFCFC8
:0405400001000000B6
:00000001FF
