:1000000071C000008EC000008CC000008AC00000DB
:1000100088C0000086C0000084C0000082C00000CC
:1000200080C000007EC000007CC000007AC00000DC
:1000300078C0000076C0000074C0000072C00000EC
:1000400070C000006EC000006CC000006AC00000FC
:1000500068C0000066C0000064C0000062C000000C
:1000600060C0000011C100005CC000005AC0000068
:1000700058C0000056C0000054C0000052C000002C
:1000800050C000004EC000004CC000004AC000003C
:1000900048C0000046C0000044C0000042C000004C
:1000A00040C000003EC000003CC000003AC000005C
:1000B00038C0000036C0000034C0000048C0000056
:1000C00030C000002EC000002CC000002AC000007C
:1000D00028C0000026C0000024C0000022C000008C
:1000E00020C0000011241FBECFEFD1E2DEBFCDBF84
:1000F00000E00CBF22E0A4E0B2E001C01D92AC34ED
:10010000B207E1F712E0A0E0B2E0E2EEF4E000E0D6
:100110000BBF02C007900D92A430B107D9F782D06F
:10012000DEC16ECFE1E2F1E0808188608083808172
:100130008560808388E09DE3909329018093280166
:10014000E3E7F0E0808182608083789408951F92D5
:100150000F920FB60F9211248F939F9380910502F7
:100160009091060201969093060280930502809179
:10017000050290910602059738F081E08093040211
:1001800010920602109205029F918F910F900FBE60
:100190000F901F9018958DB188638DB983B38062DD
:1001A00083BB89EA809390008BE08093910083E287
:1001B00084BD83E085BD0895813031F4262F30E081
:1001C00030939B0020939A00823031F4262F30E048
:1001D00030939D0020939C00833009F468BD8430E7
:1001E00029F470E07093990060939800089583302B
:1001F00031F0843031F0823031F080E0089580E8D1
:1002000008958FEF089580E408958AEA36D084E552
:1002100034D0FAD061E170E089D08B5F2ED08BEBC7
:100220002CC00895B8DF1CD07DDF8091040281309E
:1002300019F4EBDF10920402809109028823A9F3DC
:10024000EAE0F2E0808180818081863531F4C181ED
:100250008281CDDF682F8C2FAFDF10920902E5CFAE
:100260001092C50087E68093C40086E08093C200A8
:1002700088E98093C100789408959091C00095FF1B
:10028000FCCF8093C60008951F920F920FB60F9275
:1002900011240BB60F928F939F93EF93FF9380914E
:1002A000C60090914B0291110AC08A3AA1F581E0F3
:1002B00080934B0210924A02109207022CC08A3A95
:1002C00029F410924A021092070225C08B3B61F478
:1002D00080914A028093080281E080930902109283
:1002E0004B0210924A0217C090914A02903460F477
:1002F000E0914A02F0E0E65FFD4F808380914A0280
:100300008F5F80934A0207C081E0809307021092BA
:100310004B0210924A02FF91EF919F918F910F90A3
:100320000BBE0F900FBE0F901F90189597FB072ED6
:1003300016F4009406D077FD08D00BD007FC05D04A
:100340003EF4909581959F4F0895709561957F4FEC
:100350000895AA1BBB1B51E107C0AA1FBB1FA6170C
:10036000B70710F0A61BB70B881F991F5A95A9F75E
:1003700080959095BC01CD0108958F929F92AF9288
:10038000BF92CF92DF92EF92FF92CF93DF93EC0177
:10039000688179818A819B8161157105810591054B
:1003A00021F464E279ED8BE597E02DE133EF41E054
:1003B00050E038D049015A019B01AC01A7EAB1E4F1
:1003C0004DD06B017C01ACEEB4EFA501940152D08D
:1003D000DC01CB018C0D9D1DAE1DBF1DB7FF03C001
:1003E0000197A109B04888839983AA83BB839F772B
:1003F000DF91CF91FF90EF90DF90CF90BF90AF90C3
:100400009F908F900895B9CF80E092E0B6CFA0E0A2
:10041000B0E08093000290930102A0930202B09397
:1004200003020895052E97FB16F400940FD057FD94
:1004300005D024D007FC02D046F408C05095409562
:10044000309521953F4F4F4F5F4F08959095809580
:10045000709561957F4F8F4F9F4F089531D0A59F25
:10046000900DB49F900DA49F800D911D11240895AF
:10047000B7FFF4CFF3DF821B930B0895A1E21A2E8E
:10048000AA1BBB1BFD010DC0AA1FBB1FEE1FFF1F38
:10049000A217B307E407F50720F0A21BB30BE40B88
:1004A000F50B661F771F881F991F1A9469F76095CF
:1004B0007095809590959B01AC01BD01CF01089589
:1004C000A29FB001B39FC001A39F700D811D112495
:1004D000911DB29F700D811D1124911D0895F894F6
:0204E000FFCF4C
:0404E2000100000015
:00000001FF
