S01700004763634170706C69636174696F6E332E7372656359
S113000071C0000081C000007FC000007DC00000FE
S11300107BC0000079C0000077C0000075C00000FC
S113002073C0000071C000006FC000006DC000000C
S11300306BC0000069C0000067C0000065C000001C
S113004063C0000061C000005FC000005DC000002C
S11300505BC0000059C0000057C0000055C000003C
S113006053C0000049C100004FC000004DC0000053
S11300704BC0000049C0000047C0000045C000005C
S113008043C0000041C000003FC000003DC000006C
S11300903BC0000039C0000037C0000035C000007C
S11300A033C0000031C000002FC000002DC000008C
S11300B02BC0000029C0000027C000003BC0000086
S11300C023C0000021C000001FC000001DC00000AC
S11300D01BC0000019C0000017C0000015C00000BC
S11300E013C0000011241FBECFEFD1E2DEBFCDBF8D
S11300F000E00CBF22E0A0E0B2E001C01D92A331F9
S1130100B207E1F7C9D056C17BCFE1E2F1E08081CB
S11301108860808388E09DE390932901809328017F
S1130120808185608083E3E7F0E080818260808362
S1130130789408951F920F920FB60F9211242F9363
S11301403F934F935F936F937F938F939F93AF935B
S1130150BF9380910202909103020196909303024F
S11301608093020240910202509103029A01ADEC85
S1130170BCEC11D19695879596958795969587951C
S11301809C01220F331F880F991F880F991F880F16
S1130190991F820F931F4817590719F481E0809320
S11301A00102809102029091030264E873E0DFD0BF
S11301B0892B19F481E080930002BF91AF919F9144
S11301C08F917F916F915F914F913F912F910F90FC
S11301D00FBE0F901F9018958DB188638DB983B3AE
S11301E0806283BB89EA809390008BE080939100C6
S11301F083E284BD83E085BD0895813031F4262FE8
S113020030E030939B0020939A00823031F4262F03
S113021030E030939D0020939C00833009F468BD46
S1130220843029F470E070939900609398000895E5
S1130230833031F0843031F0823031F080E0089541
S113024080E808958FEF089580E408958091010275
S1130250882319F03ED0109201028091000281118E
S1130260109200020895CF9380910802882391F0A0
S113027080910902823511F490910A02863541F485
S1130280E9E0F2E0C1818281D3DF682F8C2FB5DFF2
S113029010920802CF9108956FEF82E0AEDF9CDFE9
S11302A004D033DFD3DFDFDFFDCF1092C50087E654
S11302B08093C40086E08093C20088E98093C100E3
S11302C0789408959091C00095FFFCCF8093C60068
S11302D0089580910402909105020196909305027D
S11302E0809304028AEAEEDF84E5ECDF8091040265
S11302F0E9DF8BEBE7CF08951F920F920FB60F92B1
S113030011240BB60F928F939F93EF93FF938091D9
S1130310C60090910602911108C08A3AE9F481E07E
S1130320809306021092070217C08B3B31F481E0E0
S113033080930802109206020FC0E0910702EA308F
S113034048F491E09E0F90930702F0E0E75FFD4FC1
S1130350808302C010920602FF91EF919F918F91CA
S11303600F900BBE0F900FBE0F901F901895AA1BF5
S1130370BB1B51E107C0AA1FBB1FA617B70710F08C
S1130380A61BB70B881F991F5A95A9F780959095BE
S1130390BC01CD010895A29FB001B39FC001A39FEA
S11303A0700D811D1124911DB29F700D811D1124AA
S10B03B0911D0895F894FFCF9C
S9030000FC
